:020000040800F2
:100000002813022095020008315E000881020008D2
:100010002D5E0008610A0008397000080000000029
:10002000000000000000000000000000C101000806
:100030002B0C0008000000001D020008F5670008F6
:10004000AF020008AF020008AF020008AF020008CC
:10005000AF020008AF020008AF020008AF020008BC
:10006000AF020008AF020008890C0008D10A00089E
:10007000E10A0008AF020008F10A0008010B0008BD
:10008000110B0008AF020008AF020008AF02000821
:10009000AF020008AF020008AF020008AF0200087C
:1000A000AF020008AF020008AF020008AF0200086C
:1000B00025690008AF020008AF020008AF0200087F
:1000C000AF020008AF020008AF020008AF0200084C
:1000D00099630008AF02000829700008AF02000809
:1000E000AF020008AF020008AF020008AF0200082C
:1000F000AF020008AF020008AF020008AF0200081C
:10010000AF020008AF020008AF020008A9630008B0
:10011000AF020008AF020008AF020008AF020008FB
:10012000AF020008AF020008AF020008AF020008EB
:10013000AF020008AF020008AF020008AF020008DB
:10014000AF020008AF020008AF020008AF020008CB
:10015000AF020008AF020008AF020008AF020008BB
:10016000AF020008AF020008AF020008AF020008AB
:10017000AF020008AF020008AF0200080000000054
:10018000AF020008AF0200080D6A0008AF020008C5
:10019000AF020008AF020008AF020008AF0200087B
:1001A000AF020008AF020008AF020008DFF80CD071
:1001B00000F014FC0048004705A2000828130220A4
:1001C0002C4B19680868B0E8F04F80F30988BFF33A
:1001D0006F8F4FF0000080F311887047000000001F
:1001E00008480068006880F308884FF0000080F33A
:1001F000148862B661B6BFF34F8FBFF36F8F00DF15
:1002000000BF00BF08ED00E0DFF80C00016841F41A
:1002100070010160704700BF88ED00E0EFF30980D6
:10022000BFF36F8F134B1A681EF0100F08BF20ED3D
:10023000108A20E9F04F106009B44FF0500080F3AD
:100240001188BFF34F8FBFF36F8F0BF0EFFD4FF0AF
:10025000000080F3118809BC19680868B0E8F04F05
:100260001EF0100F08BFB0EC108A80F30988BFF3AE
:100270006F8F704738000020EFF305807047000053
:100280001EF0040F0CBFEFF30880EFF3098009F0B4
:1002900015BF00000648804706480047FEE7FEE716
:1002A000FEE7FEE7FEE7FEE7FEE7FEE7FEE7FEE726
:1002B00009690008AD0100082DE9F05F054600203E
:1002C00092469B4688460646814640241BE02846C7
:1002D00041464746224600F03EFA53465A46C01A67
:1002E000914110D311461846224600F016F82D1AF7
:1002F00067EB01084F4622460120002100F00DF86F
:1003000017EB00094E41201EA4F10104DFDC484632
:1003100031462A464346BDE8F09F202A04DB203AB6
:1003200000FA02F1002070479140C2F1200320FA48
:1003300003F319439040704710B5431A934209D212
:100340008318881803E010F8011D03F8011D521EE0
:10035000F9D210BD40EA01039B0703D009E008C9A8
:10036000121F08C0042AFAD203E011F8013B00F87A
:10037000013B521EF9D210BDD2B201E000F8012BB0
:10038000491EFBD270470022F6E710B513460A4615
:1003900004461946FFF7F0FF204610BD421C10F836
:1003A000011B0029FBD1801A7047034611F8012B6D
:1003B00000F8012B002AF9D1184670472DE9FE4FAD
:1003C000804681EA0300C00F0C46009021F00041F6
:1003D00023F00045B8EB0200A94105D24046214672
:1003E00090461C460B46024623F00040104347D07F
:1003F000270DC7F30A00C3F30A510290401A019077
:1004000040286BDAC3F3130040F4801B0098924637
:1004100020B10023D2EB030A63EB0B0B0198594682
:10042000C0F140025046FFF778FF06460D465046A1
:100430005946019A00F09FF910EB08006141002431
:1004400087EA115284EAE7731A4340D0009A62B3F4
:10045000019A012A4FEA075215DC001B61EB0201E9
:100460004FF0004202EA0752CDE90042001C41F57C
:10047000801132462B4600F0D6F903B0BDE8F08F6C
:1004800040462146F9E7001B61EB0201001C41F5E3
:10049000801300185B412018A2F5001747EB0301F9
:1004A00040EAD570B6196D4111E06D084FEA360685
:1004B00045EAC0754FEA0752001B61EB0201001CC0
:1004C00041F5801149084FEA300000195141324688
:1004D0002B4603B0BDE8F04F00F096B9009801221A
:1004E00040000023D0EB020263EBE073009821464A
:1004F0004FEAE074B8EB000061EB0401E9E783F038
:1005000000435BE781F0004158E72DE9FE4F81EAA7
:10051000030404F0004421F0004100944FF0000B6C
:1005200023F0004350EA01045ED052EA03045BD09A
:10053000C3F30A54C1F30A552C44A4F2F3340194D2
:10054000A0FB0254C1F3130141F48011C3F3130360
:1005500043F4801301FB024400FB034E840A970A14
:1005600044EA815447EA8357A4FB076802958D0A41
:1005700005FB07854FEA932C04FB0C542705029DCD
:100580004FEA065847EA1637B5EB08056EEB070C3D
:10059000870E920E47EA811742EA8312A7FB0201F7
:1005A000B6EB0B0164EB00042B0D43EA0C335E1831
:1005B00044EB1C50DA465146E7FB0201C5F3130435
:1005C0004FEA0B3343EA14534FEA0432019C43EAE7
:1005D0000603A4F10C040294009CCDE900B400F0E1
:1005E00022F903B0BDE8F08F00200146F9E72DE9BC
:1005F000F04D81EA030404F0004B21F0004514465D
:100600004FF0000A23F0004150EA050220D054EADE
:1006100001021DD0C5F30A570246C5F31303C1F307
:100620001300C1F30A5640F4801543F48013A7EB7E
:100630000608101BD64608F2FD3873EB050002D3FE
:1006400008F1010801E092185B41B8F1000F03DAEC
:1006500000200146BDE8F08D00204FF480110646D1
:1006600084460EE0171B73EB050705D3121B63EBE3
:10067000050306434CEA010C49084FEA3000921882
:100680005B4150EA0107EDD152EA030012D082EA41
:10069000040083EA0501084305D0101BAB4106D2D4
:1006A0000122002306E000224FF0004302E06FF039
:1006B000010253101AEB06004CEB085110EB0A0034
:1006C00041EB0B01BDE8F04D00F09EB800F0004298
:1006D00030F000400AD0C10D01F56071C0F3160082
:1006E00042EA0151C2084007114370470020014609
:1006F000704701F0004330B421F0004150EA01029C
:1007000006D00A0DA2F56072C1F31301002A02DCC3
:1007100030BC00207047440F44EAC104C100E01817
:1007200030BC00EBC25000F038B830B50B46014683
:1007300000202022012409E021FA02F59D4205D380
:1007400003FA02F5491B04FA02F52844151EA2F12A
:100750000102F1DC30BD202A04DB203A21FA02F04C
:100760000021704721FA02F3D040C2F120029140EB
:10077000084319467047202A06DBCB17203A41FA76
:1007800002F043EAE07306E041FA02F3D040C2F11E
:10079000200291400843194670470029A8BF7047BE
:1007A000401C490008BF20F00100704710B4B0FAA7
:1007B00080FC00FA0CF050EA010404BF10BC704742
:1007C00049B1CCF1200421FA04F411FA0CF118BF5C
:1007D000012121430843A3EB0C01CB1D4FEA00612B
:1007E0004FEA102042BF002010BC704700EBC350FE
:1007F00010440029A4BF10BC7047401C490008BF2A
:1008000020F0010010BC704710B5141E73F10004F5
:1008100008DA401C41F1000192185B411A4301D1F2
:1008200020F0010010BD2DE9F04D92469B4611B11C
:10083000B1FA81F202E0B0FA80F220329046FFF77E
:100840006CFD04460F4640EA0A0041EA0B0153469C
:100850005A46084313D0114653EA010019D0C8F193
:1008600040025046FFF777FF05460E465046594670
:100870004246FFF752FD084305D0012004E0204620
:100880003946BDE8F08D0020054346EAE0762C436A
:1008900037430A986305E40AA0EB08000022FD0A2A
:1008A00044EA47540A3002D500200146E9E7010531
:1008B00010196941DDE9084500196941BDE8F04DAD
:1008C000A2E700002DE9F041054621F000400C466A
:1008D000284309D0C4F30A5040F23341884205DD71
:1008E00028462146BDE8F0812846FBE740F2FE316C
:1008F000884210DC0CDB4FEA043040EA155050EA25
:10090000053105D0104804F0004101430020E9E71B
:1009100000200146E6E7A0F233404642C6F140021D
:1009200028462146FFF7F9FC074688462846214617
:100930003246FFF710FF43463A46FFF765FF32465F
:10094000BDE8F041FFF7E9BC0000F03FC1F30A52F7
:10095000C1F3130140F2FF3341F480119A4202DAED
:1009600000200146704740F233439A42A2F23342DC
:1009700002DC5242FFF7EFBEFFF7CFBC30B5041EDA
:1009800071F1000404DB4FF00044404264EB0101CC
:10099000141E73F1000405DB1C464FF00043524265
:1009A00063EB04038B4208BF824230BD30B5041EA6
:1009B00071F1000404DB4FF00044404264EB01019C
:1009C000141E73F1000405DB1C464FF00043524235
:1009D00063EB0403994208BF904230BD064C074DBB
:1009E00006E0E06840F0010394E8070098471034FF
:1009F000AC42F6D3FFF7DEFB24260108642601088B
:100A000030B58C1810F8012B12F00F0301D110F83B
:100A1000013B120906D110F8012B03E010F8015B2D
:100A200001F8015B5B1EF9D101E001F8013B521EA8
:100A3000FBD1A142E6D3002030BD000010B5044632
:100A40002CB96C2240F2174101A007F07DF910BDCE
:100A50002E2E2F5372632F6D61696E2E630000007E
:100A600000BFFEE710B51548026815480168154833
:100A700005F036FB1448047811480068B0F900000E
:100A80000F490968B1F90210884201DD012000E038
:100A900000200D4908700846007884420AD00846B4
:100AA000007818B101200949087006E002200749C2
:100AB000087002E000200549087010BD20000010F9
:100AC00008000010BC0000102600001025000010D7
:100AD00010B5024800F0C0FB10BD000088010020E6
:100AE00010B5024800F0B8FB10BD0000B8040020AB
:100AF00010B5024800F0B0FB10BD0000F802002065
:100B000010B5024800F0A8FB10BD000058030020FB
:100B100010B5024800F0A0FB10BD0000E801002065
:100B20000146087810381823B0FBF3F20848805CBF
:100B3000C865032A05D908686FF30900001D886598
:100B400003E008686FF309008865886D704700004E
:100B500028D10008014600208A6A8B69CBB932B1DE
:100B6000012A0DD0022A03D0032A10D10EE000BFC3
:100B7000CB6A03F08073B3F1807F00D1012007E0DE
:100B8000CB6AB3F1C07F00D1012001E000E000BFDB
:100B900034E08B69B3F5005F1AD132B1012A07D076
:100BA000022A03D0032A11D10AE000BF01200EE07F
:100BB000CB6A03F08073B3F1807F00D1012006E09F
:100BC000CB6AB3F1C07F00D1012000E000BF15E087
:100BD00032B1012A05D0022A04D0032A0CD103E045
:100BE00000BF00BF012008E0CB6A03F08073B3F1BF
:100BF000807F00D1012000E000BF00BF704730B50A
:100C00000468246824F4802405682C600468636008
:100C10008468402C04D10468A2600468E16003E0A9
:100C20000468A1600468E26030BD704710B50F48E9
:100C30000F4908604FF48270486000210C488160C1
:100C4000C160016141614FF4007181610021C161A6
:100C50000162416281620A21C16203F02FFB20B16F
:100C60006B22192103A007F06FF810BD003401407A
:100C7000A00200202E2E5C5372635C64697265636F
:100C800074696F6E2E63000010B5102000F0C0FE76
:100C900010BD000008B500BF00BF0AF09FFA04466F
:100CA00006A0234607A205A1009001200AF0A4FA9D
:100CB00000BF00BF72B601BE00BFFEE76D61696E86
:100CC000000000001B5B303B33316D45202825754B
:100CD000292025733A204572726F725F48616E64F5
:100CE0006C65720D0A1B5B306D0A000010B504467E
:100CF00022464FF48051024801F018F910BD00005F
:100D0000000402402DE9F04105460C46002600276C
:100D10006548854200D104E040F23E5163A008F0EE
:100D200073FF206810B12068012800D104E040F270
:100D30003F515EA008F068FF606840B1606801281C
:100D400005D06068022802D06068032800D104E062
:100D50004FF4A86155A008F057FFA06828B1A0681B
:100D6000042802D0A068082800D104E040F24151D4
:100D70004EA008F049FFE06828B1E068102802D0D2
:100D8000E068202800D104E040F2425147A008F07A
:100D90003BFF206910B12069402800D104E040F2F7
:100DA000435142A008F030FF6069802807D0606995
:100DB000B0F5807F03D06069B0F5C07F00D104E05A
:100DC00040F2445139A008F01FFFA06918B1A06992
:100DD000B0F5007F00D104E040F2455133A008F0A7
:100DE00013FFE06938B1E069B0F5006F03D0E06946
:100DF000B0F5406F00D104E040F246512BA008F05E
:100E000003FF206A18B1206AB0F5805F00D104E0CA
:100E100040F2475125A008F0F7FE606A38B1606AD9
:100E2000B0F5005F03D0606AB0F5804F00D104E0F8
:100E30004FF4A9611DA008F0E7FE2068012816D034
:100E40002E686FF30E06D4E901010843E1680843F8
:100E50002169084361690843A1690843E1690843BE
:100E6000216A0843616A084306432E6019E02E6830
:100E700026F4F846D4E907010843616A08430643AB
:100E80006F686FF30E07D4E901010843E168084376
:100E90002169084361690843A169084307432E603B
:100EA0006F600020BDE8F081400100A02E2E2F448D
:100EB0007269766572732F53544D333246347878A5
:100EC0005F48414C5F4472697665722F5372632F9D
:100ED00073746D3332663478785F6C6C5F666D6303
:100EE0002E63000070B504460D460C48844200D1C4
:100EF00004E040F24C610AA008F086FEB5F5005F00
:100F000000D204E040F24D6105A008F07DFE60696A
:100F100040EA45006061002070BD0000400100A073
:100F20002E2E2F447269766572732F53544D3332CF
:100F3000463478785F48414C5F4472697665722F19
:100F40005372632F73746D3332663478785F6C6CD0
:100F50005F666D632E630000F8B505460C461646C5
:100F60000020009000273448854200D104E040F280
:100F7000216132A008F048FE206888B1206801286D
:100F80000ED0206802280BD02068032808D02068E3
:100F9000042805D02068052802D02068062800D142
:100FA00004E040F2226125A008F02EFE60681028BF
:100FB00005D06068082802D06068182800D104E0D5
:100FC00040F223611DA008F01FFEA06818B1A068C0
:100FD000102800D804E040F2246118A008F014FEA4
:100FE000E068B0F5005F00D204E040F2256113A094
:100FF00008F00AFED4E900010843A168491E40EA4E
:101000004110E16840EA412000900098286100F01A
:10101000C9FF074609E0701C38B126B100F0C2FFD5
:10102000C01BB04201D90320F8BDA86900F0200020
:101030002028F0D00020F7E7400100A02E2E2F44FA
:101040007269766572732F53544D33324634787813
:101050005F48414C5F4472697665722F5372632F0B
:1010600073746D3332663478785F6C6C5F666D6371
:101070002E6300002DE9F04105460C461746002678
:10108000B0465548854200D104E040F28F5153A04C
:1010900008F0BAFD206818B12068102800D804E0D4
:1010A0004FF4B2614DA008F0AFFD606818B1606800
:1010B000102800D804E040F2915148A008F0A4FDA7
:1010C000A06818B1A068102800D804E040F292513E
:1010D00042A008F099FDE06818B1E068102800D837
:1010E00004E040F293513DA008F08EFD206918B154
:1010F0002069102800D804E040F2945137A008F08D
:1011000083FD606918B16069102800D804E040F2DE
:10111000955132A008F078FDA06918B1A069102897
:1011200000D804E040F296512CA008F06DFD0FB1FC
:10113000012F00D104E040F2975128A008F064FD8F
:10114000012F1FD0AE6806F070462068401E61680F
:10115000491E40EA0111A068401E41EA0021E068F2
:10116000401E41EA0031208A401E41EA0041A08A27
:10117000401E41EA0051207E401E41EA00600643C5
:10118000AE6025E0AE6823480640E068401E0103DB
:10119000A08A401E41EA00500643D5F80C8008F0B2
:1011A00070482068401E6168491E40EA0111A0682D
:1011B000401E41EA0021208A401E41EA0041207E73
:1011C000401E41EA006040EA0808AE60C5F80C80A5
:1011D0000020BDE8F0810000400100A02E2E2F4429
:1011E0007269766572732F53544D33324634787872
:1011F0005F48414C5F4472697665722F5372632F6A
:1012000073746D3332663478785F6C6C5F666D63CF
:101210002E630000FF0F0FFF10B50346002000BF34
:1012200002E043F82020401C8842FAD310BD01465A
:1012300091F83500022803D08020486501207047CE
:10124000052081F835000868006820F001000A6870
:1012500010600020F3E70000F8B50446002000907D
:101260008C4800684FF41651B0FBF1F7A56D2E685D
:1012700094F85C1008208840304098B120680068DD
:1012800000F0040070B12068006820F004002168BC
:10129000086094F85C1008208840A860606D40F0F9
:1012A0000100606594F85C1001208840304068B10E
:1012B0002068406900F0800040B194F85C10012083
:1012C0008840A860606D40F00200606594F85C1092
:1012D00004208840304068B12068006800F00200B7
:1012E00040B194F85C1004208840A860606D40F024
:1012F0000400606594F85C1010208840304078B39A
:101300002068006800F0080050B394F85C101020CA
:101310008840A8602068006800F4802080B12068C0
:10132000006800F4002028B9206CC8B12046216C68
:10133000884715E0A06C98B12046A16C88470FE063
:101340002068006800F4807028B92068006820F0E8
:10135000080021680860206C10B12046216C884785
:1013600094F85C10202088403040002865D0206828
:10137000006800F0100000285FD094F85C10202076
:101380008840A86094F83500052828D120680068B6
:1013900020F01600216808602068406920F0800075
:1013A00021684861206C08B9A06C28B120680068E9
:1013B00020F008002168086094F85C103F20884005
:1013C000A86000BF002084F8340000BF012084F82A
:1013D0003500206D10B12046216D8847F8BD20688A
:1013E000006800F4802080B12068006800F40020CC
:1013F00028B9606C10B12046616C88471DE0E06B35
:10140000D8B12046E16B884717E02068006800F4F7
:10141000807068B92068006820F0100021680860BA
:1014200000BF002084F8340000BF012084F835009C
:10143000E06B10B12046E16B8847606D38B3606D9A
:1014400000F00100F0B1052084F835002068006844
:1014500020F001002168086000BF0098401C009047
:10146000B84200D905E02068006800F001000028BB
:10147000F3D100BF00BF002084F8340000BF01207A
:1014800084F83500E06C10B12046E16C884700BF5D
:10149000A4E70000740000102DE9F0410446002587
:1014A00000F080FD074614B90120BDE8F081C04975
:1014B0002068884249D0BE4918312068884244D00B
:1014C000BB493031206888423FD0B9494831206853
:1014D00088423AD0B64960312068884235D0B44954
:1014E00078312068884230D0B149903120688842F4
:1014F0002BD0AF49A8312068884226D0AD4920685A
:10150000884222D0AB491831206888421DD0A949B1
:1015100030312068884218D0A64948312068884276
:1015200013D0A4496031206888420ED0A149783197
:101530002068884209D09F4990312068884204D0B1
:101540009C49A8312068884200D103E0B8219AA0C4
:1015500008F05AFB6068D8B16068B0F1007F17D01E
:101560006068B0F1806F13D06068B0F1C06F0FD0C9
:101570006068B0F1006F0BD06068B0F1206F07D0E9
:101580006068B0F1406F03D06068B0F1606F00D167
:1015900003E0B92188A008F037FBA06828B1A06853
:1015A000402802D0A068802800D103E0BA2182A0A0
:1015B00008F02AFBE068B0F5007F01D0E06800B9D0
:1015C00003E0BB217CA008F01FFB2069B0F5806F11
:1015D00001D0206900B903E0BC2177A008F014FB1A
:1015E000606938B16069B0F5006F03D06069B0F52B
:1015F000805F00D103E0BD216FA008F005FBA0696A
:1016000038B1A069B0F5005F03D0A069B0F5804F94
:1016100000D103E0BE2168A008F0F6FAE06930B11D
:10162000E069B0F5807F02D0E069202800D103E0B6
:10163000BF2161A008F0E8FA206A58B1206AB0F52D
:10164000803F07D0206AB0F5003F03D0206AB0F594
:10165000403F00D103E0C02157A008F0D5FA606AEE
:1016600010B1606A042800D103E0C12152A008F043
:10167000CBFA606A002835D0A06A40B1A06A012880
:1016800005D0A06A022802D0A06A032800D103E096
:10169000C62149A008F0B8FAE06A58B1E06AB0F58E
:1016A000000F07D0E06AB0F1807F03D0E06AB0F1AC
:1016B000C07F00D103E0C7213FA008F0A5FA206B4E
:1016C00058B1206BB0F5001F07D0206BB0F5800F2C
:1016D00003D0206BB0F5C00F00D103E0C82136A0C5
:1016E00008F092FA00BF002084F8340000BF022006
:1016F00084F835002068006820F001002168086047
:101700000AE000F04FFCC01B052805D920206065C9
:10171000032084F83500C8E62068006800F0010066
:101720000028EED12068056831480540D4E9010160
:101730000843E16808432169084361690843A169D6
:101740000843E1690843216A08430543606A0428A5
:1017500003D1D4E90B0108430543206805602068E4
:10176000456925F00705606A0543606A04280DD1C4
:10177000A06A0543E06A48B12046FFF7EBF928B1BB
:1017800040206065012084F835008EE620684561C0
:101790002046FFF7C5F9064694F85C103F208840C4
:1017A000B06000206065012084F8350000207CE6F0
:1017B00010600240106402402E2E2F44726976653C
:1017C00072732F53544D3332463478785F48414C0E
:1017D0005F4472697665722F5372632F73746D3331
:1017E00032663478785F68616C5F646D612E630087
:1017F0003F8010F02DE9F04704460E4617461D467F
:101800004FF00008D4F858901DB1B5F5803F00D2D4
:1018100004E04FF4E67121A008F0F6F900BF94F857
:101820003400012802D10220BDE8F087012084F8AD
:10183000340000BF94F83500012825D1022084F837
:101840003500002060652B463A4631462046FFF7BA
:10185000D6F994F85C103F208840C9F80800206849
:10186000006840F0160021680860206C28B12068EC
:10187000006840F00800216808602068006840F0B7
:1018800001002168086006E000BF002084F83400F1
:1018900000BF4FF002084046C6E700002E2E2F443E
:1018A0007269766572732F53544D333246347878AB
:1018B0005F48414C5F4472697665722F5372632FA3
:1018C00073746D3332663478785F68616C5F646D11
:1018D000612E630070B5044600F064FB06462546A1
:1018E000681C10B104480078054400BF00F05AFBA2
:1018F000801BA842FAD370BD9800001000B587B0D5
:10190000142102A8FEF73FFD3148006808B107B076
:1019100000BD01202E49086000BF002001902D4825
:10192000006840F001002B4908600846006800F09C
:101930000100019000BF00BF4FF63F00029002205F
:10194000039000200490032005900C20069002A92B
:10195000214800F06BF82C20029002200390002018
:101960000490032005900C20069002A91B4800F06B
:101970005DF848F2131002900220039000200490BA
:10198000032005900C20069002A9154800F04EF89F
:101990004FF68070029002200390002004900320F4
:1019A00005900C20069002A90E4800F03FF84CF27A
:1019B0000370029002200390002004900320059001
:1019C0000C20069002A9084800F030F800BF9EE7FE
:1019D0006C0000103838024000140240001C024025
:1019E0000018024000100240000C024010B50446EE
:1019F000102C0AD11021054800F064FA18B101201A
:101A000008F0B0FA01E008F08DFA10BD00000240C5
:101A100010B5044604480068204020B10248046024
:101A20002046FFF7E3FF10BD143C01402DE9F843C9
:101A300005460C464FF00009C8460026FE48854280
:101A40001DD0FE4885421AD0FD48854217D0FD487A
:101A5000854214D0FC48854211D0FC4885420ED006
:101A6000FB4885420BD0FB48854208D0FA488542A6
:101A700005D0FA48854202D0F948854200D103E0FA
:101A8000B321F8A008F0C0F8208880B220B1206807
:101A90006FF30F0000B903E0B421F2A008F0B4F82E
:101AA000606830B36068012823D06068112820D0B6
:101AB000606802281DD0606812281AD0F849606852
:101AC000884216D0F7496068884212D0F6496068AB
:101AD00088420ED0F549606888420AD0F4496068AF
:101AE000884206D0F3496068884202D060680328C3
:101AF00000D103E0B521DBA008F086F8A06828B18A
:101B0000A068012802D0A068022800D103E0B62115
:101B1000D4A008F079F8002789E1012000FA07F93C
:101B2000206800EA0908C8457ED16068012808D00D
:101B30006068022805D06068112802D06068122809
:101B400023D1E06840B1E068012805D0E0680228B0
:101B500002D0E068032800D103E0C821C1A008F04A
:101B600053F8AE6879000320884086437900E06826
:101B700088400643AE606E680120B84086432079F5
:101B8000C0F30010B84006436E60EE687900032091
:101B9000884086437900A06888400643EE6060680C
:101BA000022802D0606812287ED1206900283CD02B
:101BB000206909287ED0206900287BD02069002870
:101BC00078D02069002875D0206970B32069012879
:101BD00070D0206901286DD0206902286AD0206960
:101BE000022867D02069022864D02069032861D0C8
:101BF000206904285ED0206904285BD0206904286D
:101C000058D02069052855D02069052852D0206970
:101C100009284FD0206906284CD02069092849D0CE
:101C20002069072846D001E0EEE043E0206907285C
:101C300040D0206907283DD0206908283AD0206983
:101C4000082837D02069082834D02069092831D0E5
:101C5000206909282ED020690A282BD020690A285B
:101C600028D020690B2825D020690C2822D0206993
:101C70000C281FD020690D281CD020690F2819D0EE
:101C80002069052816D02069052813D02069052869
:101C900010D0206908280DD0206908280AD02069B2
:101CA0000C2807D0206900E01DE0062802D020693A
:101CB0000E2800D103E0E0216AA007F0A5FFF90893
:101CC00005F1200050F821607807C10E0F208840F0
:101CD00086437907C90E206988400643F90805F153
:101CE000200040F821602E68790003208840864358
:101CF000207900F003007900884006432E60606878
:101D000000F08050B0F1805F7ED100BF00200090D5
:101D10006948006840F480406749086008460068E8
:101D200000F48040009000BF00BF6448B90850F83C
:101D30002160B807010F0F20884086433E48854246
:101D400001D100202DE03D48854201D1012028E04D
:101D50003B48854201D1022023E03A48854201D127
:101D600003201EE03848854201D1042019E037489D
:101D7000854201D1052014E03548854201D1062075
:101D80000FE03448854201D107200AE032488542FD
:101D900001D1082005E03148854201D1092000E049
:101DA0000A20B907090F884006434448B90840F89B
:101DB00021604348066826EA0806606800F480301F
:101DC000B0F5803F01D146EA08063D480660001D97
:101DD000066826EA0806606800F40030B0F5003FA7
:101DE00001D146EA08063648001D0660001D066857
:101DF00026EA0806606800F48010B0F5801F01D163
:101E000046EA08062E4800E010E008300660001D93
:101E1000066826EA0806606800F40010B0F5001FA6
:101E200001D146EA080626480C3006607F1C102FB8
:101E3000FFF473AEBDE8F8830000024000040240E6
:101E400000080240000C0240001002400014024052
:101E500000180240001C0240002002400024024002
:101E6000002802402E2E2F447269766572732F531C
:101E7000544D3332463478785F48414C5F44726940
:101E80007665722F5372632F73746D3332663478B4
:101E9000785F68616C5F6770696F2E630000000097
:101EA000000011100000211000003110000012107D
:101EB000000022100000321044380240083801406F
:101EC000003C014070B506460C46A0B218B1200C8B
:101ED000000400B904E04FF4BF7105A007F094FEC0
:101EE0003069204008B1012500E00025284670BD7A
:101EF0002E2E2F447269766572732F53544D3332F0
:101F0000463478785F48414C5F4472697665722F39
:101F10005372632F73746D3332663478785F6861FF
:101F20006C5F6770696F2E630000000070B5064635
:101F30000C461546A0B218B1200C000400B904E00C
:101F400040F29F1108A007F05FFE0DB1012D00D1F6
:101F500004E04FF4D07104A007F056FE0DB1B46157
:101F600001E02004B06170BD2E2E2F4472697665A9
:101F700072732F53544D3332463478785F48414C56
:101F80005F4472697665722F5372632F73746D3379
:101F900032663478785F68616C5F6770696F2E6352
:101FA0000000000001480068704700009000001029
:101FB00070B504460D461F492068884207D01E4967
:101FC0002068884203D01D492068884200D103E080
:101FD0005C211BA007F018FE0DB1102D00D103E00D
:101FE0005D2117A007F010FE94F83D0020281ED1B7
:101FF000242084F83D002068006820F0010021685A
:1020000008602068406A20F010002168486220685B
:10201000406A2843216848622068006840F0010057
:1020200021680860202084F83D00002070BD022057
:10203000FCE700000054004000580040005C0040F5
:102040002E2E2F447269766572732F53544D33329E
:10205000463478785F48414C5F4472697665722FE8
:102060005372632F73746D3332663478785F6861AE
:102070006C5F6932635F65782E63000070B504465B
:102080000D4600261D492068884207D01C4920685B
:10209000884203D01B492068884200D103E0842194
:1020A00019A007F0B1FD0F2D00D803E0852116A07F
:1020B00007F0AAFD94F83D0020281DD1242084F8C3
:1020C0003D002068006820F0010021680860206859
:1020D000406A86B226F00F0646EA050086B22068FE
:1020E00046622068006840F00100216808602020F6
:1020F00084F83D00002070BD0220FCE70054004041
:1021000000580040005C00402E2E2F447269766516
:1021100072732F53544D3332463478785F48414CB4
:102120005F4472697665722F5372632F73746D33D7
:1021300032663478785F68616C5F6932635F6578B6
:102140002E63000070B504460CB9012070BDA34990
:102150002068884207D0A2492068884203D0A1495C
:102160002068884200D104E040F2BD119EA007F033
:102170004BFD606820B1AA496068884200D804E03D
:102180004FF4DF7198A007F03FFDA06818B1A06878
:10219000B0F5804F00D104E040F2BF1192A007F0EB
:1021A00033FDE0686FF3090000B904E04FF4E0711B
:1021B0008DA007F029FD2069B0F5804F03D020697C
:1021C000B0F5404F00D104E040F2C11186A007F005
:1021D0001BFD606910B16069012800D104E04FF473
:1021E000E17181A007F010FDA06920F0FE0000B9A8
:1021F00004E040F2C3117CA007F006FDE06910B1D5
:10220000E069402800D104E04FF4E27176A007F0C5
:10221000FBFC206A10B1206A802800D104E040F263
:10222000C51171A007F0F0FC94F83D0028B900201A
:1022300084F83C00204600F0FDF8242084F83D009E
:102240002068006820F001002168086020680068AC
:1022500040F40040216808602068006820F40040D5
:102260002168086001F098FB05466E496068884265
:1022700006D86D48854201D2012007E0002005E024
:102280006A48854201D2012000E00020012800D1E7
:102290005CE76748B5FBF0F62068406820F03F0037
:1022A0003043216848605F496068884201D8701CEB
:1022B00007E04FF4967070434FF47A71B0FBF1F081
:1022C000401C2168096A21F03F0108432168086227
:1022D00054496068884214D8681E61684900B0FBA0
:1022E000F1F0401CC0F30B00042801D204203DE0B3
:1022F000681E61684900B0FBF1F0401CC0F30B00A0
:1023000034E0A06838B9681E616801EB4101B0FB98
:10231000F1F0401C0AE0681E616801EBC10202EBAB
:102320000111B0FBF1F0401C40F48040C0F30B0001
:1023300008B901201AE0A06848B9681E616801EB7D
:102340004101B0FBF1F0401CC0F30B000CE0681E33
:10235000616801EBC10202EB0111B0FBF1F0401C1E
:10236000C0F30B0040F4804040F400402168C9698C
:102370004CF6FF72914308432168C861D4E9070114
:1023800008432168096821F0C001084321680860FA
:10239000D4E9031008432168896848F2FF32914369
:1023A000084321688860D4E9050108432168C968A9
:1023B00021F0FF0108432168C8602068006840F0F0
:1023C00001002168086000202064202084F83D007E
:1023D0000020206384F83E0000BFB7E600540040B0
:1023E00000580040005C00402E2E2F447269766534
:1023F00072732F53544D3332463478785F48414CD2
:102400005F4472697665722F5372632F73746D33F4
:1024100032663478785F68616C5F6932632E63007E
:10242000801A0600A086010080841E0000093D007D
:1024300040420F0010B586B00446142101A8FDF7F4
:10244000A2FF36492068884230D100BF00200090AA
:102450003348006840F002003149086008460068CF
:1024600000F00200009000BF00BF4FF440700190E8
:102470001220029001200390032004900420059074
:1024800001A92848FFF7D2FA00BF00200090244895
:102490001030006840F400102149103108600846EF
:1024A000006800F40010009000BF34E01E4920686E
:1024B000884230D100BF002000901948006840F0E9
:1024C0000200174908600846006800F0020000900A
:1024D00000BF00BF4FF44060019012200290012025
:1024E0000390032004900420059001A90D48FFF7F4
:1024F0009DFA00BF0020009009481030006840F4A9
:1025000080000749103108600846006800F4800028
:10251000009000BF00BF06B010BD00000054004096
:1025200030380240000402400058004010B586B028
:1025300004462068806805908B492068884201D154
:102540008A4801E04FF0402080680490206840688D
:10255000039085492068884201D1844801E04FF00A
:102560004020406802906068B0F5007F02D060684B
:1025700000286FD1059800F00200022806D10398C8
:1025800000F0800010B1204602F050FF049800F0E7
:10259000010030B1029800F0400010B1204602F076
:1025A0000FFF049800F04000402832D1029800F05C
:1025B000200070B36C492068884201D16B4801E06B
:1025C0004FF04020406820F06000674A2168914247
:1025D00001D1664901E04FF0402148602068406821
:1025E00020F0A0002168486000BF00200190206812
:1025F000C068019020688068019000BF00BF012082
:1026000084F84100606C40F002006064204600F0F5
:10261000B0F8059800F00800082831D1039800F0C0
:10262000200000282CD02068406820F0A0002168FD
:1026300048604D492068884201D14C4801E04FF084
:102640004020406820F06000474A2168914202D152
:10265000464902E015E04FF04021486000BF0020ED
:10266000019020688068019000BF00BF012084F8BD
:102670004100606C40F004006064204600F079F88E
:1026800070E0049800F00200022806D1029800F0E1
:10269000800010B1204602F0E5FE059800F0010030
:1026A00030B1039800F0400010B1204602F06AFEFD
:1026B000059800F04000402827D1039800F0200042
:1026C00018B32068406820F06000216848602649FF
:1026D0002068884201D1254801E04FF04020406841
:1026E00020F0A000204A2168914201D11F4901E059
:1026F0004FF040214860012084F84100606C40F0B8
:1027000002006064204600F034F8049800F00800ED
:10271000082827D1029800F0200018B31249206839
:10272000884201D1114801E04FF04020406820F07C
:10273000A0000D4A2168914201D10C4901E04FF0FF
:10274000402148602068406820F0600021684860AF
:10275000012084F84100606C40F004006064204671
:1027600000F007F806B010BD00380040003400400B
:102770007047704710B504462046616B884710BD0E
:102780002DE9F047044614B90120BDE8F087AB49B4
:102790002068884203D0AA492068884200D104E01A
:1027A00040F21B11A7A007F02FFA606858B16068CB
:1027B000B0F5807F07D06068B0F5007F03D0606817
:1027C000B0F5407F00D104E04FF48E719DA007F07A
:1027D0001BFAA06858B1A068102808D0A06820286B
:1027E00005D0A068302802D0A068B02800D104E04D
:1027F00040F21D1193A007F007FAE06840B1E068CD
:10280000012805D0E068032802D0E068052800D13F
:1028100004E04FF48F718BA007F0F6F92069B0F552
:10282000007F01D0206900B904E040F21F1185A0AB
:1028300007F0EAF96069B0F5FA5F03D38F49606980
:10284000884202D96069022800D104E04FF49071F7
:102850007CA007F0D9F9A06910B1A069082800D1BF
:1028600004E040F2211177A007F0CEF9E0690128D9
:1028700001D0E06900B904E04FF4917171A007F054
:10288000C3F994F8410038B9002084F840007C482E
:102890006063204600F0FAF8022084F841002068C6
:1028A000C06940F6BF7188432168C8610220216871
:1028B0000862606902283CD0E06808B9102600E090
:1028C0002026A068202800D87600012000F084FB94
:1028D00080462069B0F5007F17D1E06850B1B000A4
:1028E000B8FBF0F000EB800041006069B1FBF0F054
:1028F000451D13E0F000B8FBF0F000EB8000410054
:102900006069B1FBF0F0451D08E0B8FBF6F000EBA4
:10291000800041006069B1FBF0F0451D0A20B5FB65
:10292000F0F505F00109A5EB090047084FEA092970
:1029300002E002274FF00009022F01D3FF2F05D933
:10294000606C40F01000606401201EE7206940EADE
:102950000900384321680862606840F40060A1689B
:102960000843E1680843A16908432168C96940F642
:10297000BF72914308432168C861206A10B1206A80
:10298000012800D104E040F2BD112EA007F03CF96F
:10299000206A01284AD13B48606328492068884260
:1029A00001D1394801E04FF04020C06940F6BF71C5
:1029B0008843224A2168914201D1334901E04FF016
:1029C0004021C86102201D4A2168914201D12E494F
:1029D00001E04FF04021086218492068884201D187
:1029E000294801E04FF04020C0691FFA80FA606872
:1029F000B0F5007F01D0606810B94FF4807500E039
:102A00000025A089218B084321890843284380B2EF
:102A100040F4006040EA0A0A08492068884201D16F
:102A2000194801E04FF04020C0F81CA0002060646D
:102A3000012084F841000020A7E600000038004093
:102A4000003C00402E2E2F447269766572732F531E
:102A5000544D3332463478785F48414C5F44726954
:102A60007665722F5372632F73746D3332663478C8
:102A7000785F68616C5F6932732E630000EE02005C
:102A8000D15400082D2500080034004010B586B050
:102A90000446142101A8FDF776FC654920688842A8
:102AA0007ED100BF002000906248006840F40040E2
:102AB000604908600846006800F40040009000BFCC
:102AC00000BF00BF002000905A481038006840F056
:102AD00004005849103908600846006800F00400F6
:102AE000009000BF00BF00BF0020009008460068B3
:102AF00040F0010008600846006800F00100009006
:102B000000BF00BF00BF002000900846006840F0F2
:102B1000020008600846006800F00200009000BF54
:102B200000BF80200190022002900020039002202C
:102B300004900620059001A93F48FEF777FF4FF467
:102B40000040019002200290002003900220049097
:102B50000620059001A93948FEF768FF282001905A
:102B6000022002900020039002200490062005908D
:102B700001A93348FEF75AFF10200190022002906D
:102B800000200390022004900720059001A92C4802
:102B9000FEF74CFF2B482C4908604FF0C06000E066
:102BA00043E04860002128488160C1604FF48061A3
:102BB000016149004161890081614911C1610021C0
:102BC00001624162FEF768FC08B1FEF763F800BFDE
:102BD0001D48E063846300BF1A4878301B490860D1
:102BE000002048604021194881600021C1604FF4F5
:102BF0008061016149004161890081614911C161C0
:102C0000002101624162FEF747FC08B1FEF742F87D
:102C100000BF0E48A063846300BF0022052133205B
:102C200000F0E6F8332000F0ADF806B010BD00006B
:102C3000003C0040403802400008024000000240D2
:102C4000000402401060024088010020E8010020DA
:102C500070477047034800680349097808440149F0
:102C600008607047900000109800001010B50D48E3
:102C7000006840F400700B4908600846006840F4A2
:102C8000806008600846006840F480700860032097
:102C900000F018F9002000F007F800F049F80020D3
:102CA00010BD0000003C024070B588B0044600250D
:102CB0000026002221461C2000F09AF81C2000F07B
:102CC00061F800BF002001901648006840F0010044
:102CD000144908600846006800F00100019000BF38
:102CE00000BF02A903A800F02FFE00F055FE45002A
:102CF0000D48B5FBF0F0461E4FF080400B490860D0
:102D000040F2E7310948C1604660002101618160FD
:102D100001F0C4FD20B9054801F080FE08B070BD87
:102D20000120FBE74038024040420F005C0D0020CC
:102D300008B500BF002000901148006840F48040B2
:102D40000F4908600846006800F48040009000BF0A
:102D500000BF00BF00200090081F006840F08050B6
:102D6000091F08600846006800F08050009000BF0E
:102D700000BF00220F21901E00F03AF808BD0000AD
:102D80004438024010B50446002C00DB03E0BE21AD
:102D900008A006F039FF2046002809DB00F01F02DA
:102DA000012191404209920002F1E022C2F8001193
:102DB00000BF10BD2E2E2F447269766572732F539B
:102DC000544D3332463478785F48414C5F447269E1
:102DD0007665722F5372632F73746D333266347855
:102DE000785F68616C5F636F727465782E63000052
:102DF0002DE9F05F80460C4615460027102D00D2C5
:102E000003E0AA2120A006F0FFFE102C00D203E070
:102E1000AB211DA006F0F8FE04F0C8F907463946BC
:102E200022462B4601F00700C0F1070ABAF1040F51
:102E300002D94FF0040A01E0C0F1070AD14600F1BF
:102E4000040ABAF1070F02D24FF0000A01E0A0F124
:102E5000030AD4464FF0010A0AFA09FAAAF1010A54
:102E60000AEA020A0AFA0CFA4FF0010B0BFA0CFB01
:102E7000ABF1010B0BEA030B4AEA0B063146404665
:102E800004F09CF9BDE8F09F2E2E2F447269766500
:102E900072732F53544D3332463478785F48414C27
:102EA0005F4472697665722F5372632F73746D334A
:102EB00032663478785F68616C5F636F72746578CE
:102EC0002E63000010B50446072C07D0062C05D051
:102ED000052C03D0042C01D0032C00D103E0922157
:102EE00009A006F091FE00BF04F00701154A106822
:102EF0004FF6FF021040144A024342EA0120114AF1
:102F0000106000BF10BD00002E2E2F447269766540
:102F100072732F53544D3332463478785F48414CA6
:102F20005F4472697665722F5372632F73746D33C9
:102F300032663478785F68616C5F636F727465784D
:102F40002E6300000CED00E00000FA0538B5002407
:102F500000BF002000901D48006840F080501B49D1
:102F600008600846006800F08050009000BF00BF75
:102F7000012017490864FFF715F8044607E0FFF73A
:102F800011F8001BB0F57A7F01D9032038BD114834
:102F9000406800F48030B0F5803FF0D101200C494A
:102FA0004864FEF7FFFF044607E0FEF7FBFF001B47
:102FB000B0F57A7F01D90320E8E70648406800F4BD
:102FC0000030B0F5003FF0D10020DFE7403802408C
:102FD00000000E420070004070B501460020002243
:102FE00000230024012934D11B4D2D6805F4000372
:102FF0001BB1012B29D1194829E0174D2D1F2D6830
:1030000005F48005B5F5800F08D1134D2D1F2D68EF
:1030100005F03F05124EB6FBF5F207E00E4D2D1FF1
:103020002D6805F03F050F4EB6FBF5F20A4D7C35D5
:103030002D68C5F3881505FB02F4074D7C352D6816
:10304000C5F30275B4FBF5F001E0002000BF00BF3E
:1030500000BF00BF70BD0000083802400080BB0008
:1030600000127A000024F400F8B50446002500267A
:103070002068012803D320687F2800D804E040F6A8
:103080007B01FBA006F0C0FD207800F0010048B9EC
:10309000207800F00200022804D0207800F04000E0
:1030A00040287BD16068322804D36068B0F5D87FAF
:1030B00000D804E040F68601EDA006F0A5FD002052
:1030C000FA498866FEF76EFF054606E0FEF76AFFDE
:1030D000401B022801D90320F8BDF5480068C0F361
:1030E000C0600028F2D1207800F0010098B1A068FB
:1030F000022803D3A068072800D804E040F69C010A
:10310000DBA006F081FD60688101207A41EA007051
:10311000E74984310860207800F00200022831D1AC
:10312000E068022803D3E0680F2800D804E040F6E6
:10313000A901CFA006F068FDE069012803D3E0698A
:10314000202800D804E040F6AA01C9A006F05CFDE2
:10315000D74884300068C0F3027660688101207B24
:1031600041EA006040EA0670D14984310860D048E5
:103170008C30006820F01F00E169491E0843CC49EB
:103180008C310860207800F04000402823D1E068AE
:10319000022804D3E0680F2801D805E02FE040F6AC
:1031A000BB01B3A006F030FDA068022803D3A068DD
:1031B000072800D804E040F6BC01ADA006F024FDCD
:1031C00060688101207B41EA0061207A41EA007059
:1031D000B749843108600120B4498866FEF7E2FEF1
:1031E000054606E0FEF7DEFE401B022801D903205B
:1031F00072E7AF480068C0F3C0600028F2D02078C2
:1032000000F00400042804D0207800F0080008280A
:1032100077D12069322804D32069B0F5D87F00D84F
:1032200004E040F6DA0192A006F0EEFC00209F498F
:103230000867FEF7B7FE054606E0FEF7B3FE401B43
:10324000022801D9032047E799480068C0F340707D
:103250000028F2D1207800F00400042831D1606900
:10326000022803D360690F2800D804E040F6EF017C
:103270007FA006F0C9FC206A012803D3206A202819
:1032800000D804E04FF40F6179A006F0BDFC884837
:1032900088300068C0F3027620698101207D41EA10
:1032A000006040EA0670824988310860081D0068A5
:1032B00020F4F851206A401E41EA00207C498C31FC
:1032C0000860207800F00800082838D1A06902289A
:1032D00003D3A069072800D804E040F6FF0164A0EA
:1032E00006F092FC606A58B1606AB0F5803F07D082
:1032F000606AB0F5003F03D0606AB0F5403F01D18D
:1033000005E030E04FF4106159A006F07DFC6848FC
:1033100088300068C0F303662069800140EA0661D6
:10332000207E41EA0070624988310860081D00680B
:1033300020F44030616A08435D498C310860012007
:103340005A490867FEF72EFE054606E0FEF72AFEFC
:10335000401B022801D90320BEE655480068C0F38F
:1033600040700028F2D0207800F0200020287DD185
:10337000A06AB0F5807F7AD0A06AB0F5007F76D0E1
:103380004C49A06A884272D04B49A06A88426ED0EC
:103390004A49A06A88426AD04949A06A884266D0F0
:1033A0004849A06A884262D04749A06A88425ED0F4
:1033B0004649A06A88425AD04549A06A884256D0F8
:1033C0004449A06A884252D04349A06A88424ED0FC
:1033D0004249A06A88424AD04149A06A884246D000
:1033E0004049A06A884242D03F49A06A88423ED004
:1033F0003E49A06A88423AD03D49A06A884236D008
:103400003C49A06A884232D03B49A06A88422ED00B
:103410003A49A06A88422AD03949A06A884226D00F
:103420003849A06A884222D03749A06A88421ED013
:103430003649A06A88427CD03549A06A884278D053
:103440003449A06A884274D03349A06A884270D057
:103450003249A06A88426CD03149A06A884268D05B
:103460003049A06A884264D02F495FE0E6E060E01E
:103470002E2E2F447269766572732F53544D33325A
:10348000463478785F48414C5F4472697665722FA4
:103490005372632F73746D3332663478785F68616A
:1034A0006C5F7263635F65782E63000000004742C3
:1034B0000038024000030200000303000003040080
:1034C00000030500000306000003070000030800D6
:1034D0000003090000030A0000030B0000030C00B6
:1034E00000030D0000030E0000030F000003100096
:1034F0000003110000031200000313000003140076
:103500000003150000031600000317000003180055
:103510000003190000031A0000031B0000031C0035
:1035200000031D0000031E0000031F00A06A884264
:1035300000D105E040F61F11AFF2CC0006F064FBAD
:1035400000BF002000904348006840F0805041498F
:1035500008600846006800F08050009000BF00BF7F
:103560003D48006840F480703B490860FEF71AFD52
:10357000054606E0FEF716FD401B022801D9032090
:10358000AAE53548006800F480700028F2D0314880
:103590003030006800F440764EB3208D00F4407067
:1035A000B04224D02B483030006820F4407601200F
:1035B0002A4908600020086026483030066000680C
:1035C00000F0010098B1FEF7EDFC054608E0FEF7BB
:1035D000E9FC401B41F28831884201D903207BE598
:1035E0001C4830300068C0F340000028EFD000BF16
:1035F000208D00F44070B0F5407F0CD1154838386C
:10360000006820F4F810164AA16A114008431149D5
:103610003839086007E00F483838006820F4F8109F
:103620000C49383908600B4830300068218DC1F3EF
:103630000B01084307493031086000BF207800F0D3
:103640001000102803D194F82C00064908600020CF
:1036500042E500004038024000700040400E474202
:10366000FFFCFF0FE011474270B504460D460CB950
:10367000012070BD2068012803D320680F2800D8DE
:1036800004E040F251219DA006F0BEFAEDB1012DFB
:103690001BD0022D19D0032D17D0042D15D0052DC8
:1036A00013D0062D11D0072D0FD0082D0DD0092DC8
:1036B0000BD00A2D09D00B2D07D00C2D05D00D2DC8
:1036C00003D00E2D01D00F2D00D104E040F2522185
:1036D0008AA006F099FA9748006800F00F00A84207
:1036E00009D294490D700846006800F00F00A84206
:1036F00001D00120BDE7207800F0020002283DD172
:10370000207800F00400042805D18B48006840F4BC
:10371000E05089490860207800F00800082805D1A9
:103720008548006840F4604083490860A068B8B1EB
:10373000A068802814D0A068902811D0A068A02884
:103740000ED0A068B0280BD0A068C02808D0A06810
:10375000D02805D0A068E02802D0A068F02800D1C9
:1037600004E040F2752165A006F04EFA7248006848
:1037700020F0F000A16808436F490860207800F04D
:10378000010000284ED0606840B16068012805D073
:103790006068022802D06068032800D104E04FF47A
:1037A0001F7156A006F030FA6068012807D1624800
:1037B00008380068C0F34040B8B9012059E7606894
:1037C000022802D06068032807D15B4808380068E7
:1037D000C0F3406048B901204BE7574808380068FB
:1037E000C0F3400008B9012043E75348006820F0C7
:1037F00003006168084350490860FEF7D3FB0646A2
:1038000008E0FEF7CFFB801B41F28831884201D9E6
:1038100003202EE74848006800F00C006168B0EB18
:10382000810FEED14348006800F00F00A84209D98B
:1038300040490D700846006800F00F00A84201D012
:10384000012016E7207800F0040004281FD1E0686A
:1038500078B1E068B0F5805F0BD0E068B0F5A05FAC
:1038600007D0E068B0F5C05F03D0E068B0F5E05F76
:1038700000D104E040F2BA2120A006F0C5F92E489C
:10388000006820F4E050E16808432B490860207884
:1038900000F00800082820D1206978B12069B0F52F
:1038A000805F0BD02069B0F5A05F07D02069B0F52C
:1038B000C05F03D02069B0F5E05F00D104E040F2C2
:1038C000C1210EA006F0A0F91B48006820F460405A
:1038D000216940EAC1001849086000F07DF81649E6
:1038E0000968C1F30311154A515CC84014490860C6
:1038F00014480068FFF7D8F90020BAE62E2E2F44AE
:103900007269766572732F53544D3332463478782A
:103910005F48414C5F4472697665722F5372632F22
:1039200073746D3332663478785F68616C5F72638C
:10393000632E6300003C02400838024010D10008AA
:1039400074000010940000100F2202600D4A1268EB
:1039500002F0030242600B4A126802F0F002826039
:10396000084A126802F4E052C260064A126802F481
:103970006042D2080261044A126802F00F020A6033
:103980007047000008380240003C024001480068CF
:10399000704700007400001000B5FFF7F7FF0449FE
:1039A0000968C1F38221034A515CC84000BD000090
:1039B0000838024020D1000800B5FFF7E7FF0449AE
:1039C0000968C1F34231034A515CC84000BD0000A0
:1039D0000838024020D100082DE9F04700240025D6
:1039E0000026A1462548006800F00C0020B10428FC
:1039F00005D008283AD105E0DFF8849039E0DFF8F7
:103A0000849036E01D48001F006800F03F041B480A
:103A1000001F006800F4800078B11A481749091F98
:103A20000968C1F38811A0FB0170014622460023FA
:103A30003846FCF741FC05460EE011480F49091FC6
:103A40000968C1F38811A0FB0170014622460023DA
:103A50003846FCF731FC05460848001F0068C0F3F3
:103A60000140401C4600B5FBF6F902E0DFF810907B
:103A700000BF00BF4846BDE8F0870000083802409C
:103A80000024F40000127A00F8B504460CB90120B5
:103A9000F8BD20680F2800D803E0E821FBA006F05D
:103AA000B3F8207800F00100002870D0606838B1C9
:103AB0006068B0F5803F03D06068B0F5A02F00D1FA
:103AC00003E0ED21F1A006F09FF8FE48006800F049
:103AD0000C0004280DD0FB48006800F00C000828FA
:103AE00013D1F848001F006800F48000B0F5800F83
:103AF0000BD1F44808380068C0F34040002859D082
:103B00006068002856D10120C2E700BF6068B0F5A8
:103B1000803F08D1EB480838006840F48030E9491C
:103B2000083908601EE06068B0F5A02F0DD1E548A7
:103B30000838006840F48020E249083908600846E7
:103B4000006840F4803008600CE0DE480838006807
:103B500020F48030DB49083908600846006820F40A
:103B60008020086000BF606890B1FEF71BFA054630
:103B700006E0FEF717FA401B642801D9032087E707
:103B8000D04808380068C0F340400028F1D011E068
:103B9000FEF708FA054606E0FEF704FA401B642823
:103BA00001D9032074E7C74808380068C0F34040D3
:103BB0000028F1D1207800F00200022873D1E068DB
:103BC00010B1E068012800D104E040F21F11AFA05D
:103BD00006F01AF820691F2800D804E04FF490710D
:103BE000AAA006F011F8B748006800F00C0058B120
:103BF000B448006800F00C0008281CD1B148001F30
:103C0000006800F48000B0B9AE4808380068C0F31E
:103C1000400020B1E068012801D0012038E7A94820
:103C20000838006820F0F800216940EAC100A54981
:103C30000839086037E0E06800B30120A249086055
:103C4000FEF7B0F9054606E0FEF7ACF9401B022886
:103C500001D903201CE79B4808380068C0F34000E6
:103C60000028F1D097480838006820F0F800216952
:103C700040EAC10093490839086014E000209249E5
:103C80000860FEF78FF9054606E0FEF78BF9401B4A
:103C9000022801D90320FBE68A4808380068C0F3EF
:103CA00040000028F1D1207800F00800082837D122
:103CB000606910B16069012800D104E04FF4B0716F
:103CC00072A005F0A1FF6069A8B101207F490860DA
:103CD000FEF768F9054606E0FEF764F9401B022886
:103CE00001D90320D4E677486C300068C0F3400067
:103CF0000028F1D014E0002074490860FEF752F962
:103D0000054606E0FEF74EF9401B022801D90320C4
:103D1000BEE66C486C300068C0F340000028F1D16A
:103D2000207800F00400042875D10027A06828B18D
:103D3000A068012802D0A068052800D104E04FF453
:103D4000C67152A005F060FF5E483830006800F090
:103D5000805090B900BF002000905A483830006869
:103D600040F080505749383108600846006800F03C
:103D70008050009000BF00BF01275548006800F444
:103D80008070B0B95248006840F4807050490860B3
:103D9000FEF708F9054606E0FEF704F9401B022885
:103DA00001D9032074E64A48006800F480700028B6
:103DB000F2D000BFA068012808D1424868300068EE
:103DC00040F001003F49683108601DE0A068052807
:103DD0000DD13C486830006840F004003949683132
:103DE00008600846006840F0010008600CE03548B3
:103DF0006830006820F001003249683108600846E8
:103E0000006820F00400086000BFA068A8B1FEF7B9
:103E1000C9F8054609E02FE0FEF7C4F8401B41F25F
:103E20008831884201D9032032E62648683000688C
:103E3000C0F340000028EFD013E0FEF7B3F80546CA
:103E400008E0FEF7AFF8401B41F28831884201D903
:103E500003201DE61B4868300068C0F340000028BE
:103E6000EFD1012F07D117483830006820F080507B
:103E700014493831086000BFA06928B1A069012841
:103E800002D0A069022825D12AE000002E2E2F445E
:103E90007269766572732F53544D33324634787895
:103EA0005F48414C5F4472697665722F5372632F8D
:103EB00073746D3332663478785F68616C5F7263F7
:103EC000632E63000838024000004742800E4742DC
:103ED0000070004040F2CF11AFF2500005F094FEA8
:103EE000A06900287CD06548006800F00C00082814
:103EF00077D0A069022875D1E06918B1E069B0F502
:103F0000800F00D105E04FF4EC71AFF2800005F0B6
:103F10007BFE206A3F2800D805E040F2D911AFF2BD
:103F2000940005F071FE606A322804D3606AB0F52F
:103F3000D87F00D805E04FF4ED71AFF2B00005F086
:103F400063FEA06A022808D0A06A042805D0A06AEF
:103F5000062802D0A06A082800D105E040F2DB1153
:103F6000AFF2D80005F050FEE06A022803D3E06A01
:103F70000F2800D805E04FF4EE71AFF2F00005F025
:103F800043FE00203E490866FEF70CF8054606E0B1
:103F9000FEF708F8401B022801D9032078E53748CE
:103FA00008380068C0F340600028F1D1D4E9070167
:103FB0000843616A40EA81110122A06AC2EB500005
:103FC00041EA00412C20005D41EA00602B49091FB5
:103FD000086001202A490866FDF7E4FF054609E06C
:103FE00049E025E00EE0FDF7DDFF401B022801D986
:103FF00003204DE5214808380068C0F340600028E0
:10400000F1D038E000201E490866FDF7CBFF0546D9
:1040100006E0FDF7C7FF401B022801D9032037E562
:10402000164808380068C0F340600028F1D122E04B
:10403000A069012800D12BE51048001F066806F48E
:104040008001E069814214D106F03F01206A81427B
:104050000FD147F6C0703040616A884209D106F43A
:104060004031A06A814204D106F07061E06A814269
:1040700001D001200CE500200AE5000008380240CC
:104080000000474270B504460D460CB9012070BDD2
:1040900094F82C0028B9002084F82D00204600F068
:1040A00011F8022084F82C00211D2068FCF72AFE5C
:1040B0002946D4E90002FCF7DDFF012084F82C003A
:1040C0000020E4E710B50446FDF718FC10BD70B5FC
:1040D00004460D4694F82C00022800D170BD022041
:1040E00084F82C0029462068FCF7FCFE012084F8A7
:1040F0002C000020F2E770B504460D46164694F8F1
:104100002C00022800D170BD022084F82C00324619
:1041100029462068FCF720FF2868022803D10520E3
:1041200084F82C0002E0012084F82C000020EAE74B
:1041300010B5044605492068884205D1012240F2A5
:10414000F23103A003F000FE10BD00000038004073
:104150002E2E2F5372632F6D61696E2E6300000047
:10416000F8B504462068466820688568C5F3801065
:1041700048B905F0010030B1C6F3801018B12046EF
:10418000216C8847F8BDC5F3400030B1C6F3C010BC
:1041900018B12046616C8847F4E7C5F3401030B988
:1041A000C5F3801018B9C5F3002000287CD0C6F3F1
:1041B000401000287DD0C5F38010F0B194F8510074
:1041C00003280ED0606D40F00400606500BF002041
:1041D00000902068C068009020688068009000BF50
:1041E0000BE000BF002000902068C06800902068AD
:1041F0008068009000BF00BFC4E7C5F3401088B1DD
:10420000606D40F00100606500BF002000902068F4
:10421000806800902068006820F0400021680860F5
:1042200000BF00BFC5F3002058B1606D40F008002A
:10423000606500BF0020009020688068009000BF8B
:1042400000BF606D78B32068406820F0E00021680E
:104250004860012084F8510006F00200022802D0D4
:1042600006F0010008B32068406820F003002168D0
:104270004860E06C50B11048E16C0865E06CFCF7F8
:10428000D6FF18B1606D40F040006065A06C50B181
:104290000948A16C0865A06CFCF7C9FF18B1606DF6
:1042A00040F04000606503E003E02046FFF740FF78
:1042B00068E700BF66E70000B963000810B5044670
:1042C0000CB9012010BD6F492068884213D06E4997
:1042D000206888420FD06D49206888420BD06C4915
:1042E0002068884207D06B492068884203D06A4919
:1042F0002068884200D104E04FF4A17167A005F066
:1043000083FC606818B16068B0F5827F00D104E07A
:1043100040F2431161A005F077FCA06838B1A068B5
:10432000B0F5806F03D0A068B0F5004F00D104E075
:104330004FF4A27159A005F067FCE068B0F5006F7A
:1043400001D0E06800B904E040F2451153A005F047
:104350005BFCA069B0F5007F05D0A06918B1A06929
:10436000B0F5802F00D104E04FF4A3714BA005F00D
:104370004BFCE069A0B1E069082811D0E069102881
:104380000ED0E06918280BD0E069202808D0E06939
:10439000282805D0E069302802D0E069382800D10B
:1043A00004E040F247113DA005F02EFC206A10B158
:1043B000206A802800D104E04FF4A47137A005F0F2
:1043C00023FC606A10B1606A102800D104E040F25A
:1043D000491132A005F018FC606AA8B9206910B133
:1043E0002069022800D104E04FF4A6712BA005F04B
:1043F0000BFC606910B16069012800D104E040F253
:104400004D1126A005F000FC0021A16294F8510096
:1044100028B9002084F85000204600F05BF8022004
:1044200084F851002068006820F04000216808608E
:10443000D4E901010843E16808432169084361693F
:104440000843218B01F400710843E1690843216AA4
:104450000843A16A0843216808600421A06901EAB1
:104460001040616A0843216848602068C06920F4F0
:1044700000602168C86100206065012084F8510057
:1044800000201FE70030014000380040003C0040A1
:104490000034014000500140005401402E2E2F44B2
:1044A0007269766572732F53544D3332463478787F
:1044B0005F48414C5F4472697665722F5372632F77
:1044C00073746D3332663478785F68616C5F7370D3
:1044D000692E630010B586B00446142101A8FBF7CD
:1044E00052FF6849206888427ED100BF00200090BA
:1044F0006548006840F40010634908600846006899
:1045000000F40010009000BF00BF00BF002000902A
:104510005D481030006840F480405B49103108600D
:104520000846006800F48040009000BF00BF00BF54
:10453000002000905448006840F002005249086092
:104540000846006800F00200009000BF00BF4FF472
:10455000604001900220029000200390032004900C
:104560000520059001A94948FDF760FA48484949E6
:10457000086000204860002146488160C1604FF417
:1045800080610161002141618161C161016241621B
:10459000FCF782FF08B1FCF77DFB00BF3D48E064FB
:1045A000846300BF3A4818303B49086000204860E7
:1045B0004021394881600021C1604FF48061016170
:1045C000002141618161C16101624162FCF764FFC8
:1045D00008B1FCF75FFB00BF2F48A064846300BFF5
:1045E00000220521242000E015E0FEF701FC242034
:1045F000FEF7C8FB00220F210E20FEF7F9FB0E206C
:10460000FEF7C0FB00220F210846FEF7F1FB0F204A
:10461000FEF7B8FB33E02149206888422FD100BF64
:104620000020009018481430006840F400501649EB
:10463000143108600846006800F40050009000BF84
:1046400000BF00BF002000900F48006840F010003D
:104650000D4908600846006800F01000009000BF97
:1046600000BF6420019002200290002003900320EC
:1046700004900520059001A90948FDF7D7F906B077
:1046800010BD0000003800403038024000040240F5
:1046900058600240F8020020580300200034014016
:1046A00000100240704770472DE9F04704460E465F
:1046B00017461D464FF0000AE06C00B104E040F2DE
:1046C00012715BA005F0A0FAA06C00B104E040F20A
:1046D000137157A005F098FAA06800B904E040F201
:1046E000167153A005F090FA00BF94F8500001280D
:1046F00002D10220BDE8F087012084F8500000BFFD
:1047000094F85180D4F80490B8F1010F0AD0B9F5AB
:10471000827F04D1A06810B9B8F1040F02D04FF025
:10472000020A7DE00EB107B115B94FF0010A77E03A
:1047300094F85100042802D0052084F8510000208C
:1047400060652663A586E586A763A587E58720645F
:10475000606494F85100042806D14348E16C086471
:104760004248E16CC86305E04148E16C0864414897
:10477000E16CC8634048E16CC8640020E16C0865E6
:10478000E38FD4F800C00CF10C01A26BE06CFDF7D4
:1047900031F848B1606D40F0100060654FF0010ADB
:1047A000012084F851003BE02068406840F001009F
:1047B000216848600020A16C0864A16CC863A16CEA
:1047C000C864A16C0865E38ED4F800C00CF10C023B
:1047D000216BA06CFDF70EF848B1606D40F0100041
:1047E00060654FF0010A012084F8510018E020684C
:1047F000006800F04000402805D02068006840F0C4
:104800004000216808602068406840F0200021686E
:1048100048602068406840F002002168486000BF9E
:1048200000BF002084F8500000BF504662E700003F
:104830002E2E2F447269766572732F53544D333286
:10484000463478785F48414C5F4472697665722FD0
:104850005372632F73746D3332663478785F686196
:104860006C5F7370692E6300F563000811640008C3
:10487000036400088D640008CD63000810B5044689
:104880000348844202D1012005F09EFB10BD0000C8
:1048900048020020704770477047000010B504467A
:1048A0000CB9012010BD41492068884233D02068EE
:1048B000B0F1804F2FD03E49206888422BD03D492F
:1048C0002068884227D03C492068884223D03B4951
:1048D000206888421FD03A49206888421BD0394955
:1048E0002068884217D038492068884213D0374959
:1048F000206888420FD03649206888420BD035495D
:104900002068884207D034492068884203D0334960
:104910002068884200D104E04FF4897130A005F08E
:1049200073F9A06858B1A068102808D0A0682028A2
:1049300005D0A068402802D0A068602800D104E01B
:1049400040F2131126A005F05FF9206938B1206903
:10495000B0F5807F03D02069B0F5007F00D104E07E
:104960004FF48A711EA005F04FF9A06910B1A0693B
:10497000802800D104E040F2151119A005F044F997
:1049800094F83D0028B9002084F83C00204600F04F
:1049900043F8022084F83D00211D206801F0CAFF81
:1049A000012084F83D0000207CE700000000014069
:1049B0000004004000080040000C004000100040CF
:1049C0000014004000040140004001400044014048
:1049D0000048014000180040001C0040002000403A
:1049E0002E2E2F447269766572732F53544D3332D5
:1049F000463478785F48414C5F4472697665722F1F
:104A00005372632F73746D3332663478785F6861E4
:104A10006C5F74696D2E63007047000070B50446CA
:104A200028492068884233D02068B0F1804F2FD0C9
:104A30002549206888422BD024492068884227D005
:104A400023492068884223D02249206888421FD009
:104A50002149206888421BD020492068884217D00D
:104A60001F492068884213D01E49206888420FD011
:104A70001D49206888420BD01C492068884207D015
:104A80001B492068884203D01A492068884200D117
:104A900004E040F2B91118A005F0B6F82068C0682B
:104AA00040F001002168C8602068806800F00705B8
:104AB000062D05D02068006840F0010021680860DC
:104AC000002070BD000001400004004000080040CC
:104AD000000C0040001000400014004000040140A1
:104AE00000400140004401400048014000180040DF
:104AF000001C0040002000402E2E2F447269766575
:104B000072732F53544D3332463478785F48414C9A
:104B10005F4472697665722F5372632F73746D33BD
:104B200032663478785F68616C5F74696D2E6300FB
:104B3000704710B5044620680069C0F34000D8B142
:104B40002068C068C0F34000B0B16FF00200216877
:104B50000861012020772068806900F0030018B107
:104B60002046FFF7E5FF05E0204600F0ADF82046BF
:104B700000F0ABF80020207720680069C0F38000C7
:104B8000D8B12068C068C0F38000B0B16FF00400F5
:104B900021680861022020772068806900F4407055
:104BA00018B12046FFF7C4FF05E0204600F08CF85E
:104BB000204600F08AF80020207720680069C0F3C2
:104BC000C000D8B12068C068C0F3C000B0B16FF0B9
:104BD000080021680861042020772068C06900F07F
:104BE000030018B12046FFF7A3FF05E0204600F0C0
:104BF0006BF8204600F069F80020207720680069F3
:104C0000C0F30010D8B12068C068C0F30010B0B184
:104C10006FF0100021680861082020772068C069C3
:104C200000F4407018B12046FFF782FF05E02046EF
:104C300000F04AF8204600F048F80020207720686D
:104C4000006900F0010058B12068C06800F0010060
:104C500030B16FF0010021680861204600F036F89D
:104C600020680069C0F3C01058B12068C068C0F364
:104C7000C01030B16FF08000216808612046FFF756
:104C80000AFE20680069C0F3801058B12068C0682F
:104C9000C0F3801030B16FF04000216808612046F9
:104CA00000F01DF820680069C0F3401058B120687A
:104CB000C068C0F3401030B16FF020002168086177
:104CC0002046FFF7E9FD10BD7047704710B5044658
:104CD0002068B0F1804F01D1FDF7BCFF10BD7047D7
:104CE00038B5044600BF002000902068006800909E
:104CF00020684068009000BF00BF00BF0020009007
:104D000020680068009020684068009000BF00BFE5
:104D100000BF002000902068006800902068406874
:104D2000009000BF00BF0948844202D105F0ACF9F1
:104D30000AE00748844202D105F04AFB04E0054836
:104D4000844201D105F052FA38BD0000F80300207A
:104D500078040020B80300202DE9F04704462068BD
:104D600005682068C668206847694FF00008C1469A
:104D700005F00F08B8F1000F0AD105F0200038B196
:104D800006F0200020B1204601F072FEBDE8F08759
:104D9000B8F1000F72D007F0010018B906F4907056
:104DA00000286BD005F0010030B106F4807018B116
:104DB000E06B40F00100E06305F0040030B107F063
:104DC000010018B1E06B40F00200E06305F0020062
:104DD00030B107F0010018B1E06B40F00400E0636F
:104DE00005F0080048B106F0200010B907F00100F6
:104DF00018B1E06B40F00800E063E06B70B305F0C1
:104E0000200028B106F0200010B1204601F030FE4D
:104E100020684069C0F38019E06B00F0080010B909
:104E2000B9F1000F23D0204601F002FE206840694E
:104E300000F04000402816D12068406920F0400072
:104E400021684861606B50B11748616B0865606B01
:104E5000FCF7EDF910B1606B016D88470CE020465E
:104E6000FFF73EFF08E02046FFF73AFF04E0204648
:104E7000FFF736FF0020E06388E7FFE705F08000DA
:104E800030B106F0800018B1204602F098F87DE7B6
:104E900005F0400030B106F0400018B1204601F0A6
:104EA000D7FD73E700BF71E71D6A000810B504461F
:104EB0000CB9012010BDA06900282AD04C492068F7
:104EC00088420BD04B492068884207D04A49206865
:104ED000884203D049492068884200D104E040F26A
:104EE0004B1147A004F090FEA06958B1A069B0F53D
:104EF000807F07D0A069B0F5007F03D0A069B0F52E
:104F0000407F00D12BE04FF4A6713DA004F07CFE61
:104F100025E03749206888421BD0364920688842FE
:104F200017D035492068884213D044492068884208
:104F30000FD04349206888420BD03049206888420E
:104F400007D040492068884203D03F492068884202
:104F500000D104E04FF4A87129A004F055FEA06828
:104F600018B1A068B0F5805F00D104E04FF4A971DA
:104F700023A004F049FEE06918B1E069B0F5004FE4
:104F800000D104E040F253111DA004F03DFE94F85E
:104F9000390028B9002084F83800204600F056F87F
:104FA000242084F839002068C06820F4005021686B
:104FB000C860204601F0B0FD2068006920F49040F0
:104FC000216808612068406920F02A002168486152
:104FD0002068C06840F400502168C8600020E06389
:104FE000202084F8390084F83A00002062E70000AD
:104FF00000100140004400400048004000140140FF
:105000002E2E2F447269766572732F53544D3332AE
:10501000463478785F48414C5F4472697665722FF8
:105020005372632F73746D3332663478785F6861BE
:105030006C5F756172742E6300000000004C0040CC
:105040000050004000780040007C004010B586B061
:105050000446142101A8FBF796F986492068884286
:1050600030D100BF002000908348006840F4002049
:10507000814908600846006800F40020009000BFE5
:1050800000BF00BF002000907B481038006840F04F
:1050900001007949103908600846006800F00100F5
:1050A000009000BF00BF0320019002200290012069
:1050B0000390032004900820059001A96F48FCF795
:1050C000B5FCD4E06E492068884255D100BF00206D
:1050D00000906948006840F08040674908600846D1
:1050E000006800F08040009000BF00BF00BF0020BB
:1050F000009061481038006840F020005E49103987
:1051000008600846006800F02000009000BF00BF63
:10511000C0200190022002900120039003200490FF
:105120000820059001A95748FCF780FC56485749CC
:105130000860800548604021544881600021C160BA
:105140004FF480610161002141618161C1610162AF
:105150004162FCF7A1F908B1FBF79CFD00BF4B4889
:105160002063846300BF002205215220FDF740FE2A
:105170005220FDF707FE7AE045492068884232D187
:1051800000BF002000903C48001D006840F0100067
:105190003949091D08600846006800F010000090B9
:1051A00000BF00BF00BF00200090334810380068E7
:1051B00040F002003049103908600846006800F0ED
:1051C0000200009000BF00BFC020019002200290AA
:1051D00000200390032004900720059001A92D488A
:1051E000FCF724FC43E02C49206888423FD100BFF3
:1051F000002000902048006840F400301E490860FC
:105200000846006800F40030009000BF00BF00BFF7
:105210000020009018481038006840F0010016493E
:10522000103908600846006800F00100009000BFD7
:1052300000BF0C2001900220029001200390032067
:1052400004900720059001A90C48FCF7EFFB002211
:1052500005212620FDF7CCFD2620FDF793FD002239
:1052600005212620FDF7C4FD2620FDF78BFD06B0A5
:1052700010BD0000004C00404038024000000240D9
:10528000007800400014024028600240B80400206A
:1052900000100140000402400044004010B50346E5
:1052A00093F83A0020282FD101B10AB9012010BD8E
:1052B00000BF93F83800012801D10220F7E7012050
:1052C00083F8380000BF99629A85DA850020D86398
:1052D000222083F83A0000BF002083F8380000BF86
:1052E0001868C06840F480701C68E0601868406905
:1052F00040F001001C6860611868C06840F0200040
:105300001C68E0600020D2E70220D0E770B50446B8
:105310000C48844205D1012004F074FD04F0B4FE71
:105320000EE00948844202D105F052F808E007482F
:10533000844205D104F054FF054604F057FF00BF36
:1053400070BD0000F803002078040020B80300209E
:1053500010B504460848844202D105F003F80AE07B
:105360000648844202D104F037FD04E00448844238
:1053700001D104F01FFF10BD78040020F8030020C5
:10538000B803002010B504462068C06881B2E26A04
:10539000901CE0621180608E401E6086608E68B94D
:1053A0002068406820F0600021684860608D28B95E
:1053B000012084F841002046FDF7DAF910BD000015
:1053C00010B5044617492068884201D1164801E00B
:1053D0004FF04020C06881B2E26A901CE062118008
:1053E000608E401E6086608ED8B90E492068884263
:1053F00001D10D4801E04FF04020406820F06000EE
:10540000084A2168914201D1074901E04FF040214B
:105410004860608D28B9012084F841002046FDF7DE
:10542000A7F910BD003800400034004010B5044614
:10543000616A881C606208882168C860608D401EAF
:105440006085608D68B92068406820F0A000216800
:105450004860608E28B9012084F841002046FDF79D
:1054600087F910BD10B50446616A881C606208881F
:10547000154A2168914201D1144901E04FF04021C1
:10548000C860608D401E6085608DD8B90E49206867
:10549000884201D10D4801E04FF04020406820F0E3
:1054A000A000094A2168914201D1084901E04FF06A
:1054B00040214860608E28B9012084F841002046D0
:1054C000FDF756F910BD00000038004000340040E0
:1054D0001CB5044620688068019094F841000428B7
:1054E00030D1019800F0010038B120684068C0F365
:1054F000801010B1204600F059F8019800F04000EB
:1055000040281FD120684068C0F34010D0B1206807
:10551000406820F060002168486000BF00200090D3
:105520002068C068009020688068009000BF00BFBD
:10553000012084F84100606C40F002006064204665
:10554000FDF717F994F8410003282ED1019800F0D7
:105550000200022807D120684068C0F3C01010B1D3
:10556000204600F03EF8019800F0080008281CD101
:1055700020684068C0F34010B8B12068406820F04F
:10558000A0002168486000BF00200090206880686B
:10559000009000BF00BF012084F84100606C40F023
:1055A000040060642046FDF7E4F81CBD10B5044615
:1055B0002068C068E16A0880E06A801CE062608E52
:1055C000401E6086608E58B92068406820F06000F8
:1055D00021684860012084F841002046FDF738FB2F
:1055E00010BD10B50446606A00882168C860606A12
:1055F000801C6062608D401E6085608D58B9206897
:10560000406820F0A00021684860012084F8410033
:105610002046FDF71EFB10BD7047000010B50A487C
:10562000006830B903220021012006F022FD06495E
:1056300008600548006820B90022342103A002F068
:1056400083FB04F0D3FD10BD280000202E2E5C53F8
:1056500072635C6C63642E63000000002DE9F04708
:105660002DED088B82B08246884614469C4800681F
:10567000401C9B490860002509E00AEB850090ED7D
:10568000000A206900EB850080ED000A6D1C60684F
:10569000A842F2DCD4E90132D21A9100226902EB6D
:1056A0008300FAF770FE002511E0206900EB850009
:1056B00090ED000AE06900EB8500D0ED000A20EED5
:1056C000200A206900EB850080ED000A6D1C6068EF
:1056D000A842EADC8248006800B100270023D4E930
:1056E0000412206B04F065F9A06800EBD0714FEA5A
:1056F0006109606990ED000A60EE008A606990EDD2
:10570000010A20EE009A01251AE0606900EBC5004D
:1057100090ED001AF0EE410A012101EB45016069AC
:1057200000EB810090ED001AB0EE410A20EEA01AC5
:1057300000EE001A606900EB850080ED001A6D1C18
:105740004D45E2DB6069C0ED008A606900EB8900CD
:1057500080ED009A002646E00027DFED620AB0EEF9
:10576000600A226A52F82610626A52F826000D4634
:1057700025E0626902EB8502D2ED000AF5EEC00A6F
:10578000F1EE10FA04DBB1EEE01A8DED011A04E03F
:105790009FED541A8DED011A00BFA26A52F826C07F
:1057A0003A467F1C0CEB820292ED001ADDED011AE5
:1057B000F0EE400A41EE810AB0EE600A6D1C8542AF
:1057C000D7DDA26902EB860282ED000AB5EEC00ABF
:1057D000F1EE10FA06D1DFED440AA26902EB86026F
:1057E000C2ED000A761C282EB6DB00260EE0A0696A
:1057F00000EB8600D0ED000AB0EE600A01F0FCFC80
:10580000A06900EB860080ED000A761C282EEEDBF6
:1058100000255CE09FED330AB0EE408A002714E0DB
:1058200005EB850107EBC101E06A00EB8100D0EDDB
:10583000000AA06900EB870090ED001AB0EE480A5C
:1058400000EE810AB0EE408A7F1C282FE8DB217B26
:105850000120884000EE100AB8EEC00A20EE080AC7
:10586000B0EE408A18EE100AFAF730FF41EC1B0B3D
:10587000B0EE4B0AF0EE6B0A01F076FDB0EE40AAF6
:10588000F0EE60AA51EC1A0BFAF733FF08EE100A9B
:105890009FED160AB4EEC08AF1EE10FA03DB7F200A
:1058A00028F8150012E09FED120AB4EEC08AF1EE5E
:1058B00010FA04D86FF07F0028F8150006E0BDEE5E
:1058C000C80A10EE100A00B228F815006D1C2068F6
:1058D000A8429FDC02B0BDEC088BBDE8F087000059
:1058E0009400002000000000000080000000FE4244
:1058F000000000C308B500BF002000901A480068EF
:1059000040F40010184908600846006800F40010D0
:10591000009000BF00BF00220F210B20FDF768FAA6
:105920000B20FDF72FFA002205210C20FDF760FA6D
:105930000C20FDF727FA002205210E20FDF758FA6A
:105940000E20FDF71FFA002205210F20FDF750FA67
:105950000F20FDF717FA00220F211020FDF748FA5B
:105960001020FDF70FFA08BD3038024000B587B0AF
:105970001C216846FAF707FD19481A4908600020FB
:1059800048600021174881600421C1601021016135
:10599000402141614FF4C07181610021C1614FF428
:1059A000406101624FF480514162890081620220AE
:1059B0000090072001900420029010200390049092
:1059C00002200590069069460648FEF75BFB08B189
:1059D000FBF760F90449034800F000FC07B000BD84
:1059E000400100A0180500204C0D002000B587B034
:1059F000142102A8FAF7C7FC00BF002001906E48EE
:105A0000006840F010006C4908600846006800F02B
:105A10001000019000BF00BF00BF002001900846A9
:105A2000006840F0200008600846006800F0200090
:105A3000019000BF00BF00BF002001900846006831
:105A400040F0040008600846006800F0040001907F
:105A500000BF00BF00BF002001900846006840F072
:105A6000010008600846006800F00100019000BFD6
:105A700000BF00BF002001900846006840F0800091
:105A800008600846006800F08000019000BF00BF79
:105A900000BF002001900846006840F04000086008
:105AA0000846006800F04000019000BF00BF00BF42
:105AB000002001900846006840F002000860084697
:105AC000006800F00200019000BF00BF00BF00208E
:105AD00001900846006840F0080008600846006829
